{
  "contractName": "renamedVerifier",
  "abi": [
    {
      "constant": false,
      "inputs": [
        {
          "name": "a",
          "type": "uint256[2]"
        },
        {
          "name": "b",
          "type": "uint256[2][2]"
        },
        {
          "name": "c",
          "type": "uint256[2]"
        },
        {
          "name": "input",
          "type": "uint256[2]"
        }
      ],
      "name": "verifyTx",
      "outputs": [
        {
          "name": "r",
          "type": "bool"
        }
      ],
      "payable": false,
      "stateMutability": "nonpayable",
      "type": "function"
    },
    {
      "anonymous": false,
      "inputs": [
        {
          "indexed": false,
          "name": "s",
          "type": "string"
        }
      ],
      "name": "Verified",
      "type": "event"
    }
  ],
  "bytecode": "0x608060405234801561001057600080fd5b506111ca806100206000396000f3fe608060405234801561001057600080fd5b5060043610610048576000357c010000000000000000000000000000000000000000000000000000000090048063621e9ec01461004d575b600080fd5b6101ac600480360361014081101561006457600080fd5b8101908080604001906002806020026040519081016040528092919082600260200280828437600081840152601f19601f82011690508083019250505050505091929192908060800190600280602002604051908101604052809291906000905b82821015610119578382604002016002806020026040519081016040528092919082600260200280828437600081840152601f19601f820116905080830192505050505050815260200190600101906100c5565b50505050919291929080604001906002806020026040519081016040528092919082600260200280828437600081840152601f19601f820116905080830192505050505050919291929080604001906002806020026040519081016040528092919082600260200280828437600081840152601f19601f82011690508083019250505050505091929192905050506101c6565b604051808215151515815260200191505060405180910390f35b60006101d0611018565b60408051908101604052808760006002811015156101ea57fe5b6020020151815260200187600160028110151561020357fe5b602002015181525081600001819052506040805190810160405280604080519081016040528088600060028110151561023857fe5b6020020151600060028110151561024b57fe5b6020020151815260200188600060028110151561026457fe5b6020020151600160028110151561027757fe5b60200201518152508152602001604080519081016040528088600160028110151561029e57fe5b602002015160006002811015156102b157fe5b602002015181526020018860016002811015156102ca57fe5b602002015160016002811015156102dd57fe5b60200201518152508152508160200181905250604080519081016040528085600060028110151561030a57fe5b6020020151815260200185600160028110151561032357fe5b60200201518152508160400181905250606060026040519080825280602002602001820160405280156103655781602001602082028038833980820191505090505b50905060008090505b60028110156103b357848160028110151561038557fe5b6020020151828281518110151561039857fe5b9060200190602002018181525050808060010191505061036e565b5060006103c0828461042b565b141561041c577f3f3cfdb26fb5f9f1786ab4f1a1f9cd4c0b5e726cbdfc26e495261731aad44e3960405180806020018281038252602281526020018061117d6022913960400191505060405180910390a1600192505050610423565b6000925050505b949350505050565b6000807f30644e72e131a029b85045b68181585d2833e84879b9709143e1f593f0000001905061045961104d565b6104616105b3565b9050806080015151600186510114151561047a57600080fd5b610482611096565b6040805190810160405280600081526020016000815250905060008090505b8651811015610526578387828151811015156104b957fe5b906020019060200201511015156104cf57600080fd5b610517826105128560800151600185018151811015156104eb57fe5b906020019060200201518a8581518110151561050357fe5b90602001906020020151610a0c565b610aa8565b915080806001019150506104a1565b5061054d818360800151600081518110151561053e57fe5b90602001906020020151610aa8565b90506105938560000151866020015161056584610b65565b85604001516105778a60400151610b65565b87606001516105898960000151610b65565b8960200151610c01565b15156105a557600193505050506105ad565b600093505050505b92915050565b6105bb61104d565b60408051908101604052807f2322adae03d0732f1d564c6ce1a8652ddf4da027c26620da124cd5151fa90d5c81526020017f1248d9cf42a1bf987e4933f218f96247d49e9e1d94a292d95b589dad150103508152508160000181905250604080519081016040528060408051908101604052807f20ff7429d36160120e59a46c4f686da55831ed5f73028ed34f3eab61df7b4e5081526020017f2030c523b0737933059cc495b8cc723a6f62cff9c8a7c9b4d1387d7dcd54ef61815250815260200160408051908101604052807f1993efe8d24357027c2a201d9bca3d57f6be1ab9709bcb7be48f9a26b044030c81526020017f1e8192036092526503365f0ca0129ec91fc8ad54061fdd7f681b49f430a2dbf38152508152508160200181905250604080519081016040528060408051908101604052807f0a32437aa48167fd5b4b982776588e95ebbc8e3c5c3aca84a573d4b3a1926e7e81526020017f13915d7787e58652bcd469739e46efa2780c07349638bded55be1f8ad81b8295815250815260200160408051908101604052807f200aad0b60cbb4906aa5451dae7d0e1161f6bcc6b575b1bae264b668059296d381526020017f01a4a46573592c89b42a950b4d58bb9322b37b357eea03ae02f3414289c649fa8152508152508160400181905250604080519081016040528060408051908101604052807f152a37205cafedb00670b7a4faa9d9ace456368e6ee26b920a994bdc736e6c0081526020017f0a7cd09ea971f16e9e5ef6df8e8c9cf507d4d5331aa23db1c22bdda516bd091c815250815260200160408051908101604052807f0dccdfa0e6ca979f062a81ed79d82ffce06e90a5e35d130c786b63bd88a4de2881526020017f11442890c2ad7ffbaae7fcb219460f401a568cf901111341d2cb77c4865f7fb4815250815250816060018190525060036040519080825280602002602001820160405280156108a257816020015b61088f6110b0565b8152602001906001900390816108875790505b50816080018190525060408051908101604052807f2c2976794d73c34ce17280314ffd390769a6b741e7992c527bb266d00702238581526020017f24a696423b789fbae2eeb9f0e09273a16f1553d4a3e776f41fb7ca53ece5aca68152508160800151600081518110151561091357fe5b9060200190602002018190525060408051908101604052807f115f07008e5eb3c6b0b0f21d003116e9b8cfedae3719ffec6e86dca39192c1d481526020017e817fa3ef50b66a85d593f7b9007132418c634a0e5b6910571faf05cc7bf2cb8152508160800151600181518110151561098757fe5b9060200190602002018190525060408051908101604052807f288e7a4a4c89963d541d2e70370bf5a22e5bb0d09aa33ba2d7254f085de72abf81526020017f16c83321504269ce5f001cb13378939f2480ce5aebbda85a51e36bea136c5166815250816080015160028151811015156109fc57fe5b9060200190602002018190525090565b610a14611096565b610a1c6110ca565b8360000151816000600381101515610a3057fe5b6020020181815250508360200151816001600381101515610a4d57fe5b60200201818152505082816002600381101515610a6657fe5b6020020181815250506000606083608084600060076107d05a03f190508060008114610a9157610a93565bfe5b50801515610aa057600080fd5b505092915050565b610ab0611096565b610ab86110ed565b8360000151816000600481101515610acc57fe5b6020020181815250508360200151816001600481101515610ae957fe5b6020020181815250508260000151816002600481101515610b0657fe5b6020020181815250508260200151816003600481101515610b2357fe5b602002018181525050600060608360c084600060066107d05a03f190508060008114610b4e57610b50565bfe5b50801515610b5d57600080fd5b505092915050565b610b6d611096565b60007f30644e72e131a029b85045b68181585d97816a916871ca8d3c208c16d87cfd47905060008360000151148015610baa575060008360200151145b15610bce576040805190810160405280600081526020016000815250915050610bfc565b604080519081016040528084600001518152602001828560200151811515610bf257fe5b0683038152509150505b919050565b600060606004604051908082528060200260200182016040528015610c4057816020015b610c2d6110b0565b815260200190600190039081610c255790505b50905060606004604051908082528060200260200182016040528015610c8057816020015b610c6d611110565b815260200190600190039081610c655790505b5090508a826000815181101515610c9357fe5b9060200190602002018190525088826001815181101515610cb057fe5b9060200190602002018190525086826002815181101515610ccd57fe5b9060200190602002018190525084826003815181101515610cea57fe5b9060200190602002018190525089816000815181101515610d0757fe5b9060200190602002018190525087816001815181101515610d2457fe5b9060200190602002018190525085816002815181101515610d4157fe5b9060200190602002018190525083816003815181101515610d5e57fe5b90602001906020020181905250610d758282610d85565b9250505098975050505050505050565b600081518351141515610d9757600080fd5b6000835190506000600682029050606081604051908082528060200260200182016040528015610dd65781602001602082028038833980820191505090505b50905060008090505b83811015610fb4578681815181101515610df557fe5b90602001906020020151600001518260006006840201815181101515610e1757fe5b90602001906020020181815250508681815181101515610e3357fe5b90602001906020020151602001518260016006840201815181101515610e5557fe5b90602001906020020181815250508581815181101515610e7157fe5b90602001906020020151600001516000600281101515610e8d57fe5b60200201518260026006840201815181101515610ea657fe5b90602001906020020181815250508581815181101515610ec257fe5b90602001906020020151600001516001600281101515610ede57fe5b60200201518260036006840201815181101515610ef757fe5b90602001906020020181815250508581815181101515610f1357fe5b90602001906020020151602001516000600281101515610f2f57fe5b60200201518260046006840201815181101515610f4857fe5b90602001906020020181815250508581815181101515610f6457fe5b90602001906020020151602001516001600281101515610f8057fe5b60200201518260056006840201815181101515610f9957fe5b90602001906020020181815250508080600101915050610ddf565b50610fbd611137565b60006020826020860260208601600060086107d05a03f190508060008114610fe457610fe6565bfe5b50801515610ff357600080fd5b600082600060018110151561100457fe5b602002015114159550505050505092915050565b6101006040519081016040528061102d6110b0565b815260200161103a611110565b81526020016110476110b0565b81525090565b6101e0604051908101604052806110626110b0565b815260200161106f611110565b815260200161107c611110565b8152602001611089611110565b8152602001606081525090565b604080519081016040528060008152602001600081525090565b604080519081016040528060008152602001600081525090565b606060405190810160405280600390602082028038833980820191505090505090565b608060405190810160405280600490602082028038833980820191505090505090565b60806040519081016040528061112461115a565b815260200161113161115a565b81525090565b602060405190810160405280600190602082028038833980820191505090505090565b604080519081016040528060029060208202803883398082019150509050509056fe5472616e73616374696f6e207375636365737366756c6c792076657269666965642ea165627a7a723058209a485d6d321cd9abd62e5fd9d6b5209188a2c20ca88b9e77655c6d00cd2e4bd00029",
  "source": "pragma solidity >=0.4.21 <0.6.0;\nimport \"./ERC721Mintable.sol\";\nimport \"./Verifier.sol\";\n\n// TODO define a contract call to the zokrates generated solidity contract <Verifier> or <renamedVerifier>\n\ncontract renamedVerifier is Verifier{\n\n}\n\n// TODO define another contract named SolnSquareVerifier that inherits from your ERC721Mintable class\n\ncontract SolnSquareVerifier is propertyERC721Token {\n\n\nstruct Solution{\n    uint256 tokenId;\n    address owner;\n}\n\n\n\n// TODO define a solutions struct that can hold an index & an address\n\nmapping (bytes32 => Solution) internal solutions;\n\n// TODO define an array of the above struct\n\n\n// TODO define a mapping to store unique solutions submitted\n\nevent solutionAdded(uint256 tokenId, address owner);\n\n// TODO Create an event to emit when a solution is added\n\nfunction addSolution (uint256 _tokenId, address _owner, bytes32 _index)  internal {\n        \n        Solution storage solut = solutions[_index];\n\n        solut.tokenId = _tokenId;\n        solut.owner = _owner;\n    \n        emit solutionAdded(_tokenId, _owner);\n}\n\n// TODO Create a function to add the solutions to the array and emit the event\n\n\n\n// TODO Create a function to mint new NFT only after the solution has been verified\n//  - make sure the solution is unique (has not been used before)\n//  - make sure you handle metadata as well as tokenSuplly\n\n  function mint(address to, uint256 tokenId, uint[] memory a, uint[] memory c, uint input) public{\n\nmint(to, tokenId);\n  }\n}\n\n\n\n\n\n\n\n\n\n\n\n\n\n\n\n\n\n\n\n\n\n\n\n\n\n",
  "sourcePath": "/Users/danielbourke/Documents/udacity/bcnd/realestateToken/eth-contracts/contracts/SolnSquareVerifier.sol",
  "compiler": {
    "name": "solc",
    "version": "0.5.2+commit.1df8f40c.Emscripten.clang"
  },
  "schemaVersion": "3.0.16",
  "updatedAt": "2019-09-29T18:29:44.283Z",
  "devdoc": {
    "methods": {}
  },
  "userdoc": {
    "methods": {}
  }
}